:100000000C946C010C9489010C9489010C94321AA3
:100010000C9489010C9489010C9489010C94890138
:100020000C9489010C9489010C94351F0C940920BF
:100030000C9455170C9489010C9489010C94890136
:100040000C9489010C9489010C9489010C94890108
:100050000C9489010C94F8170C9489010C94890173
:100060000C9489010C9489010C9489010C948901E8
:100070000C9489010C9489010C9489010C948901D8
:100080000C9489010C9489010C9489010C948901C8
:100090000C9489010C9489010C9489010C948901B8
:1000A0000C9489010C9489010C94890129001E008B
:1000B0001F002000210022002B0014001A0008005D
:1000C00015001700E10004001600070009000A00EF
:1000D000E0001D001B000600190005000000E20002
:1000E000E30021522C002F003500270026002500B8
:1000F000240023002D00130012000C0018001C0027
:10010000340033000F000E000D000B0031003800EA
:1001100037003600100011000000E6002A002252CD
:100120002800300001000100010001000100010071
:1001300001003A003B003C003D003E0001003F0052
:1001400040004100420043000100440045006800B7
:1001500069006A00000001000100010001000100C7
:10016000010056002600250024000100570057001A
:1001700023002200210001000100550020001F0083
:100180001E0001003102540063002700010001003D
:10019000000001004C0001000100670001000100A7
:1001A00001000100010001000100010033026700AD
:1001B00046070100010057005600540001000100ED
:1001C0000100010001000100010001000000010028
:1001D0000100010001000100010001000100010017
:1001E000010001000100460046065200BC0001006B
:1001F000010001004F00510050000100010001000A
:10020000A9000100550001000000010001000100EB
:100210000100010000AE00AF00DA0281FFD9F1DB7E
:1002200020A4A62EAF00A0C0D30000A1C8D3000018
:10023000AED580A81F408D1420000E034C0069002D
:100240006C00790035003800000010036C00690074
:100250006C00690075006D00730000000403090460
:1002600009022200010100A0FA09040000010301B3
:100270000100092111010001224400070581030842
:1002800000011201000200000008D8042DEB00015B
:100290000102000105010906A101050719E029E78E
:1002A00015002501950875018102950175088101E8
:1002B0000507190029FF150026FF0095067508811E
:1002C00000050819012905150025019505750191FD
:1002D00002950175039101C011241FBECFEFDAE032
:1002E000DEBFCDBF11E0A0E0B1E0E8E7F5E402C079
:1002F00005900D92A234B107D9F724E0A2E4B1E051
:1003000001C01D92AC36B207E1F70E9483120C9433
:100310007B220C9400008330B8F46A30A8F4463095
:1003200098F450E096E0699F400D511D1124FA01A8
:100330009CE3899FE00DF11D1124EE0FFF1FE45592
:10034000FF4F85919491089581E090E008950E9477
:100350008B01089581E008950E94AA01089581E02B
:1003600008950E94AA0108950E94B1010895089578
:100370000E94B7010895A6E0B0E0E1ECF1E00C9432
:10038000EB2149835A839E833091490189819A8167
:1003900031111AC03E81332399F0222389F00E9443
:1003A000DE06182F682F89819A810E94BA0669811A
:1003B0007A81812F0E949E0D2696E3E00C940722FD
:1003C0000E94CC06182FF3CF0E94DE0669817A8145
:1003D000F1CFFC01262F408151816281738184819C
:1003E00095810E94BB010895CF93DF93EC0161E0FA
:1003F0000E94E901BE010E94AC01DF91CF910895F6
:10040000CF93DF93EC0160E00E94E901BE010E94FE
:10041000B801DF91CF91089581E008950E940C0208
:100420000895CF93C82F0E948F058C2F0E940E0233
:100430002FEF84E39CE0215080409040E1F700C022
:100440000000CF91089581E00E9411020E941C18C3
:10045000089580E00E9411020E942D1808950F93C4
:100460001F93CF93DF938C0161E00E94E901EC01BF
:10047000B8010E94B401811106C080E0DF91CF91E4
:100480001F910F910895B801CE010E943D16882357
:10049000A1F3B801CE010E94FD14882371F3B801C5
:1004A000CE010E94D314882341F3F801858188236B
:1004B00061F0C330FCE7DF07E9F058F4C115ECE761
:1004C000DE07A9F0C130DC47B9F0C8010E94AF01D6
:1004D000D5CFCB358CE7D807A9F0CC35ECE7DE07D4
:1004E00071F0CA35DC4789F70E94F50AEECF0E9409
:1004F0002302C3CF0E94FD0A0E942902BECF0E94A0
:10050000EB0AE3CF0E94F90AE0CF0E9432170E9463
:10051000AE020E94621408950E94B2020E94371730
:100520000895089581E008950895CF93DF93D82F1B
:100530000E949202C82F882319F08D2F0E949402E6
:100540008C2FDF91CF9108950895CF93C82F0E94EB
:1005500091028C2F0E949502CF91089580E00E9415
:10056000A50208950E9486160E94A5020895CF93C1
:100570000E948616C82F809144018C1779F0C09391
:1005800044010E94C1176093450170934601809316
:100590004701909348018C2F0E94A502CF910895A6
:1005A000ADE0B0E0E6EDF2E00C94EC21488759872D
:1005B0006A877B878C879D8791110E942B0A1F82F7
:1005C00086E0FE013896DE01119601900D928A9523
:1005D000E1F78D8181110DC029813A814B815C81C8
:1005E0006D817E818F810E9475092D96E2E00C94C9
:1005F0000822CE0101960E94F4018111EDCFF5CFC2
:10060000FC012481213021F4808191810E94100716
:100610000895CF93C82F882399F08CEF8C0F813ADF
:1006200088F48C2F0E94BA16882329F08C2F0E9400
:10063000FD160E949A0A8C2F0E94F5160E949A0AB3
:10064000CF91089580E28C0F8830D0F7C77081E099
:1006500001C0880FCA95EAF70E940E0AEFCF8823DF
:1006600041F09CEF980F913A28F40E94FD160E94E9
:100670009A0A089590E2980F9830D8F7877091E021
:1006800001C0990F8A95EAF7892F0E94140AEFCFCB
:100690001F93CF93DF93182FEB010E94090320973C
:1006A00039F4812F0E942F03DF91CF911F9108957C
:1006B0008FE99FE00197F1F700C000002197EFCF8D
:1006C00070E060E0893311F460E570E00E94480357
:1006D0000895882321F00E940E0A0E949A0A089524
:1006E000882321F00E94140A0E949A0A0895B0E01B
:1006F000A0E0EDE7F3E00C94E5216C01D62FC72FC5
:10070000FC011581068102950F700E94040AE82EF3
:100710008823F9F0E12E1123E1F08C2F807F8034C3
:1007200061F080E28D0F883008F18C2F807E80325E
:1007300021F4D230D8F00023C9F08091380282FF32
:1007400015C082E00E94BF0A0E94040A91E0E82ED0
:10075000E926BC2EB2949FE0B922FBE0FB15B8F16C
:10076000EB2DF0E0E358FD4D0C94D621E12CF1CFB8
:100770000C2F0F70C07F11F00295007F112399F0AC
:10078000002359F080E28D0F883010F0D11107C09E
:10079000802F0E940E0A0E949A0A8D2F5AC0802F25
:1007A0000E941E0AF8CF8D2F0E942F03002379F09C
:1007B00080E28D0F883010F0D11104C0802F0E948C
:1007C000140A03C0802F0E94240A0E949A0AEB2D6B
:1007D000E850FF0B349720F40E9486160E94A50271
:1007E000EE2089F00E94000A80FD0DC0F6011582FE
:1007F0000E94FA090E941806C6010E9462050E9422
:10080000FA090E942806CDB7DEB7E9E00C94012270
:100810002C2F2F70F22EC07FC03219F0F29480EF8F
:10082000F822DD2341F0D130D1F1112309F444C085
:100830000023F1F0B2CF8091380282FD15C0112360
:1008400059F0FF2029F08F2D0E940E0A0E949A0A6B
:1008500080E00E940903BBCF80E00E942F03FF20AD
:1008600009F4B5CF8F2DABCF112369F0011104C06E
:100870008F2D0E946903ABCF013009F0A8CF8F2DD7
:100880000E94420AA4CF0111A2CF8F2D0E947003B3
:100890008F2D0E944E0A8F2D0E94320A98CF11236D
:1008A00021F0063008F093CFE3CF053008F08FCF6A
:1008B0008F2D0E9470038BCF0023D1F3D93349F4DD
:1008C0003FEF87EE93E0315080409040E1F700C069
:1008D00000008D2F0E942F037ACF8C2F8370A1F5FB
:1008E000111175CF4D2F429546954770440F440F17
:1008F0002D2F2F7030E0042E02C0220F331F0A94D8
:10090000E2F790E080E0D4FF09C08FE090E002C001
:10091000880F991F4A95E2F780959095C695C695E0
:10092000C370822B932BC23049F058F4C13019F0B8
:100930000E94E8054CCF0E94DF0549CF0E94F105D7
:1009400046CF0E94DC0543CF8695112311F08C2FF2
:100950008170882309F43BCF4D2F4295469547700F
:10096000440F440F2D2F2F7030E0042E02C0220FB1
:10097000331F0A94E2F790E080E0D4FF09C08FE0D3
:1009800090E002C0880F991F4A95E2F780959095F4
:10099000C695C695C370822B932BC23049F058F48C
:1009A000C13019F00E94530612CF0E944A060FCFA1
:1009B0000E945C060CCF0E94000609CFCF70112365
:1009C00029F08C2F0E9418068D2F53CF8D2F0E9457
:1009D00070038C2F0E942806FACED23F41F160F4BA
:1009E000D03FB9F0D13F81F0112309F443C0011188
:1009F000D4CE8C2F8F711FC0D33F01F1D43FA1F70C
:100A00008091380282FD24C08C2F8F71112311F345
:100A100012C0112341F0053008F0D9CE8C2F8F7110
:100A20000E943A06D4CE063008F0D1CEF7CF8C2FF4
:100A30008F711111CFCF0E941806C9CE112329F052
:100A40008C2F8F710E940C06C2CE0E940706BFCE6B
:100A5000112331F063E08C2F8F710E94A10AB7CE71
:100A600081E00E94BF0A023008F4B1CE82E00E9409
:100A7000BF0AADCE002359F0D93309F02ACFEFEFEA
:100A8000F7EE23E0E150F0402040E1F720CF8C2F3B
:100A90008F71A0CF0F931F93CF93DF93EC016881E9
:100AA00079818D810E941B078C010E9465060E943E
:100AB000DB05B801CE010E947703DF91CF911F9132
:100AC0000F910895CF93DF93EC018C81882399F0E7
:100AD000CE010E942F02811111C00E94040A8823B6
:100AE00051F08D81882339F08091380282FF03C054
:100AF00082E00E94BF0ADF91CF910895CE010E944B
:100B00004A05CE010E940002F6CF0E942B0A0E94E5
:100B10009A0A08950E9405170E94850508950E946B
:100B20001B0A0E948A05089592959F70963091F055
:100B300058F4925F9F70923058F4803F19F030F46F
:100B4000883E30F481E008959A5FF4CF843FD1F37A
:100B500080E00895883EB0F3813FD1F7F3CFFC01E8
:100B60002481222339F0808191810E9410070E9404
:100B70009405089580E00895A6E0B0E0E2ECF5E089
:100B80000C94EC212696E2E00C940822A7E0B0E059
:100B9000ECECF5E00C94EC212796E2E00C940822B2
:100BA00008950E94D00508950E94D10590936D018B
:100BB00080936C01089508950E94D40508952091B2
:100BC0006C0130916D01822B932B0E94D405089506
:100BD00020916C0130916D01822393230E94D405F2
:100BE000089520916C0130916D01822793270E9416
:100BF000D40508950E94D00508950E94FA0508952D
:100C00000E94FD0590936B0180936A01089590E026
:100C100080E00E940006089521E030E0A90102C0B2
:100C2000440F551F8A95E2F7CA010E9400060895F5
:100C300021E030E002C0220F331F8A95E2F7809155
:100C40006A0190916B01822B932B0E9400060895FC
:100C500021E030E002C0220F331F8A95E2F7209591
:100C6000309580916A0190916B01822393230E94B9
:100C70000006089521E030E002C0220F331F8A955C
:100C8000E2F780916A0190916B01822793270E947D
:100C90000006089520916A0130916B01822B932BFD
:100CA0000E940006089520916A0130916B01822311
:100CB00093230E940006089520916A0130916B01F0
:100CC000822793270E94000608950895262F2770F3
:100CD00091E001C0990F2A95EAF723E07695679590
:100CE0002A95E1F7660F771F660F771FFA01E60F67
:100CF000F71F50E040E0682F70E08191DF0111970D
:100D00009B01042E02C0369527950A94E2F72170C4
:100D100021952827292328272C934F5F5F4F4430A4
:100D2000510559F70895A82FA77023E09695879548
:100D30002A95E1F7880F991F880F991FFB01E80F8B
:100D4000F91F50E040E080E0219130E00A2E02C01F
:100D5000369527950A94E2F721703327042E01C0B7
:100D6000220F0A94EAF7822B4F5F5F4F4430510500
:100D700059F70895262F9A3070F4863060F4682F62
:100D800070E086E0989F600D711D11244AE451E0E7
:100D9000822F0E9466060895292F9A3068F48630C3
:100DA00058F490E06AE471E036E0239F800D911DD5
:100DB00011240E949306089580E00895B0E0A0E019
:100DC000E4EEF6E00C94E5217C0100916A011091BB
:100DD0006B0180916C0190916D01082B192BCFE074
:100DE000D0E0CC24C394D12CBC2EC6010C2E02C062
:100DF000880F991F0A94E2F780239123892B49F4E5
:100E0000219790F7B12C8B2DCDB7DEB7E9E00C948C
:100E10000122B7018C2F0E94AA0D019789F3F3CF0D
:100E2000CF93DF93EC010E94DE06BE010E94AA0D63
:100E3000DF91CF9108951F93CF93DF93EB019091B2
:100E40004901992339F0CB010E941007DF91CF911E
:100E50001F910895882369F0CB010E94DE06182FA8
:100E6000682FCE010E94BA06BE01812F0E94AA0DF2
:100E7000EDCFCB010E94CC06182FF6CF1F93CF9356
:100E8000DF93C0916E0117E080916F018C1304C055
:100E9000DF91CF911F910895D0E01C9FF0011D9F1D
:100EA000F00D1124E059FE4F2081318142815381A0
:100EB0006481758186810E94C6052196C770E4CF42
:100EC0002091A8013091A9014091AA015091AB0154
:100ED0006091AC017091AD018091AE010E94C60598
:100EE0000895CF93DF938091AE01807F09F04DC0CC
:100EF0008091AD01882309F448C0E0916E015091C2
:100F00006F01C091A901D091A8016091AA017091CF
:100F1000AB0147E05E17C9F18E2F90E0E49FF0012E
:100F20001124E059FE4F2481222391F1489FF001C2
:100F3000499FF00D1124DF01A059BE4F11962C914D
:100F400011972C1325C02C912D1322C015962C918E
:100F5000159721111DC012962D913C91261B370B20
:100F6000283C3105A8F48091AE018F708061809398
:100F7000AE01EA58FE4F80818F708061808388EADD
:100F800091E00E9462050E943E07DF91CF91089593
:100F9000FC013196E770BECF482F20916E019091F1
:100FA0006F0157E0291302C080E0089530E0529F9E
:100FB000F001539FF00D1124E059FE4F8181681319
:100FC00006C08081481303C085818111EECF2F5F59
:100FD0003F4F2770E7CFA4E1B0E0E1EFF7E00C94DA
:100FE000E2218C0186E0F801DE011F9601900D924E
:100FF0008A95E1F7F8018481E58098EAA92E91E0CD
:10100000B92E9091AC0191111FC08823D1F0EE2030
:10101000A9F0C8010E94AF05F82E882379F087E077
:10102000F801D50101900D928A95E1F7C5010E9462
:1010300000030E9471070E9460075FC0C8010E9400
:101040006205FF24F39459C0C080D18082809380D0
:10105000F090AD012091AA013091AB01A401421B97
:10106000530BFF2009F4F9C0483C510508F0A7C014
:10107000882309F442C09091A9018091AE01282FE4
:10108000207F09F05CC09D1116C09091A801C91283
:1010900012C0E1104EC08F7080618093AE010E943B
:1010A000600788EA91E00E9462058091AE01F80134
:1010B0008683F12C22C0E1103CC06D2D8C2D0E9446
:1010C000CC076D2D8C2D0E94CC07E82E8111F1CF1D
:1010D000CF86D88A8F8598890E941007292F22955C
:1010E0002F70243078F49F702230A8F09923B9F043
:1010F000F8019681907F99F4FE2C8F2D6496ECE098
:101100000C94FE212A5F2F70223068F0C8010E94E3
:101110006205EF2CF1CF992311F0882369F3805EEB
:10112000883050F3F3CF803F38F3815F833070F71E
:10113000E3CF8091AE0181608093AE01BACF9D1163
:1011400013C09091A801C9120FC0E1100DC0868391
:10115000C8010E94620587E0F801A8EAB1E00190A9
:101160000D928A95E1F767CFC8010E94AF058823E9
:1011700009F464CFEE2009F461CF8091AE01803292
:1011800088F02091A8013091A901398728879B8692
:101190008A869091AC019C871D868E87CE01089629
:1011A0000E94620587E0F801A8EAB1E001900D9283
:1011B0008A95E1F70E9471070E94600742CF9091E3
:1011C000AE01292F207FA1F4682D9A8A898AA60171
:1011D0007A899E2D0E94BC0588EA91E00E946205F2
:1011E00087E0F50111928A95E9F70E94600761CFC7
:1011F000882309F482CF8091A9018D1110C08091BC
:10120000A801C8120CC0E1100AC09683C8010E9450
:10121000620587E0F50111928A95E9F76ECFC80162
:101220000E94AF05882309F409CFEE2009F406CF08
:101230008091AE01803208F4B5CF2091A8013091A1
:10124000A9013A8329839C828B829091AC019D8372
:101250001E828F83CE010196A3CF483C5105B8F57D
:10126000882309F4EECEFE2CEE2009F4E7CE80911F
:10127000A9018D111EC08091A801C8121AC08091C9
:10128000AE0180FD0DC0982F907F51F08683903F76
:1012900009F45ECF982F907F905F8F70892B57CF86
:1012A00087E0F801A8EAB1E001900D928A95E1F794
:1012B00024CFC8010E94AF05811174CF8091AE0187
:1012C00081608093AE01C8010E94620516CF682D2F
:1012D0009A8A898AA6017A899E2D0E94BC0587E098
:1012E000F50111928A95E9F7A6CEAEE0B0E0EBE702
:1012F000F9E00C94EB21288739874A875B876C8754
:101300007D878E87CE0108960E94EB078823B1F077
:101310006C85662341F0288539854A855B857D8506
:101320008E850E94C60517E080916E0190916F0135
:1013300089133DC02E96E3E00C94072287E0FE015E
:101340003896DE01119601900D928A95E1F78C8511
:10135000882349F320916F0130E0C901019687701D
:10136000992740916E014817190699F097E0929FCE
:10137000D001939FB00D1124A059BE4FFE013196AC
:1013800001900D929A95E1F780936F010E943E07BC
:10139000CACF0E948F0510926F0110926E0187E0F4
:1013A000E8EAF1E0DF011D928A95E9F7BCCF819F61
:1013B000C001112480599E4F0E94EB07882309F435
:1013C000B9CFE0916E011E9FF0011124E059FE4F4C
:1013D00020813181428153816481758186810E949F
:1013E000C60580916E0190E00196877099278093E1
:1013F0006E019ACF8091B70186958695869508955E
:101400008091B701877008959091B701977081E03E
:1014100009F480E008958091C30108959091C3017B
:10142000892B8093C301089580959091C3019823DF
:101430009093C30108951092C30108959091C20141
:10144000892B8093C201089580959091C2019823C1
:101450009093C20108951092C201089508950E94C8
:101460002E0A08959091B801292F282331F08095F4
:1014700089238093B8010E942F0A089508950E943D
:101480003E0A08959091B901292F2823281729F0A1
:10149000982B9093B9010E943F0A08959091B90149
:1014A000292F282331F0809589238093B9010E9448
:1014B0003F0A08958091B901882329F01092B9015B
:1014C00080E00E943F0A08950F931F93CF93DF930C
:1014D0000091000110910101C091C3018091C201EE
:1014E000C82B8091B901882331F0C82B0E94A51622
:1014F00081110E945A0AF801C083C0910001D09165
:10150000010148E050E06FEA71E0CE010E94132231
:10151000892B59F088E0FE01AFEAB1E001900D920D
:101520008A95E1F7CE010E949A16DF91CF911F9123
:101530000F9108950E94640A089508950E949D0ADB
:1015400008959091380292FF11C098E0899F900110
:101550001124622B6093B7010E9418068091B70195
:101560008695869586950E949E0A08950E94180683
:1015700008951092B70180E00E949E0A089590910C
:10158000B701809589238093B701282F277069F4CC
:10159000891759F09091380292FF07C08695869579
:1015A00086950E9428060E94B90A089590913802F3
:1015B00092FB222720F9281769F080FB92F990937B
:1015C000380280913702909138020E941E0B82E00F
:1015D0000E94BF0A08958091380282FB882780F913
:1015E00091E089270E94D60A089581E00E94D60AD8
:1015F000089580E00E94D60A08956FEF7FEF90E093
:1016000080E00E946522089590E080E00E943122EF
:1016100021E0853E9E4F09F020E0822F089582E070
:1016200090E00E942922089583E090E00E94292200
:10163000089584E090E00E9431220895BC0184E086
:1016400090E00E9465220895AB01BC018FE090E01C
:101650000E9459220895AB01BC0183E190E00E94F1
:101660005922089560E070E0CB010E942B0B089591
:1016700060E070E0CB010E94240B0E94320B0895C1
:10168000A8E0B0E0E6E4FBE00C94EC2165EE7EEF30
:1016900090E080E00E94652260E082E090E00E949D
:1016A000472281E090E090936D0180936C0161E0AE
:1016B00083E090E00E94472260E074E184E090E0E3
:1016C0000E94652260E086E090E00E94472260E090
:1016D00087E090E00E94472240E050E0BA0188E0B5
:1016E00090E00E94592260E083E290E00E9447224D
:1016F00060E08CE090E00E94472260E08DE090E0A6
:101700000E94472219821A821B821C821D821E821D
:101710001F82188648E050E067E170E0CE01019634
:101720000E94372240E050E0BA018FE190E00E9431
:1017300059220E94380B2896E2E00C9408220E945D
:10174000400B0895682F8EE090E00E944722089594
:10175000A6E0B0E0EEEAFBE00C94EA210E94B517A7
:101760008C018091C4019091C5018017910781F08F
:1017700019821A820E94B517682F49815A81792FE0
:1017800080E090E00E94D0021093C5010093C40154
:101790002696E4E00C9406220E94C60E6093D401C3
:1017A0007093D5018093D6019093D7016093D001B7
:1017B0007093D1018093D2019093D301089508953D
:1017C00008950E94DF0B089508950E94E40B089588
:1017D00081E0089580EE9EE00E9498120E94E00B46
:1017E0000E94E10B08950E949710089508950895AE
:1017F0000E94F60B0E94F70B08950E94040B8111C2
:1018000002C00E949F0B0E940F0B8093D8010E9480
:10181000190B90933802809337020E94140B90E0CA
:101820000E94DC0580916A0190916B010E94FD0588
:1018300008950E94AC170E94A00E0E949D100E9465
:10184000EE0F0E94FD0B0E94A4020E94BB1480E0D8
:101850000E94E5120E94AF100E94E50B0895A6E0D9
:10186000B0E0E5E3FCE00C94E2210E94E80BC82E16
:10187000811110C00E94A80BC12C0E9497100E94D9
:101880008214C1100E9448130E94B7022696ECE011
:101890000C94FE210E94111086ECA82E81E0B82E37
:1018A000750110E0F70101917F01812F0E94EA0E7E
:1018B0001F5F1A3009F441C00817A1F38091D801C5
:1018C00081FD0E94F00E0E94F30B982E10E08824F8
:1018D0008394812F0E94EA0E082FF50181915F0108
:1018E000081729F1F12CEE24E394D02ED8268D2D63
:1018F0008E21A9F0992099F0F9821A830E94B517D8
:101900009C838B838D8291E0802F8E2109F490E05F
:1019100049815A816B817C818D810E94D002F39430
:10192000EE0CF6E0FF12E3CFF501319700831F5F65
:101930001A3079F60E94CC0BA0CF0813BFCF9ACFF4
:101940001F93CF93DF930E94AF0DEC01C11582E589
:10195000D80708F03FC0C11590E5D90708F0C2C00C
:10196000C83ED105C0F4C03ED10580F4C53AD105CA
:1019700048F4C430D10550F4C130D10539F0D0E07D
:10198000C0E004C0CD3CD105D0F3D065CE01DF91DD
:10199000CF911F910895C11580E4D80708F053C076
:1019A000C11590E2D90708F0B7C0C11581E0D8078A
:1019B00030F38D2F0E94510E182FCE0199270E94CF
:1019C000AF0DC12FD0E0DC2FCC27CC27DF71C82B87
:1019D000D92BDCCFC03892E5D907A8F4C03682E510
:1019E000D80708F063C0C03492E5D90708F049C0B1
:1019F000C03282E5D80788F1CF71D0E0DC2FCC2748
:101A0000C16FD06AC3CFC03C92E5D90780F48C2F58
:101A10008F71C03AD24508F45EC00E94510EC82FA3
:101A2000D0E0DC2FCC27CC27DF71D062AFCFC03E17
:101A300082E5D80708F0A3CFDC2FCC27CC27DF71B5
:101A4000C06FD06AA3CFCE0199270E94AF0DCC27DB
:101A5000DF70C82BD92BD06A99CF2C2F26952695CD
:101A600090E2299F900111248C2F8370C1E0D0E077
:101A700002C0CC0FDD1F8A95E2F7C22BD32BDD68A5
:101A800085CF2C2F26952695277080E2289F9001E0
:101A900011248C2F8370C1E0D0E002C0CC0FDD1F79
:101AA0008A95E2F7C22BD32BDC6870CF2C2F2695BA
:101AB0002695277090E2299F900111248C2F837026
:101AC000C1E0D0E002C0CC0FDD1F8A95E2F7C22B47
:101AD000D32BDA685BCFC82FD0E0DC2FCC27C46FC4
:101AE000D06A54CF8C2F8F710E94510E55E0D6953D
:101AF000C7955A95E1F7CF70D0E0DC2FCC27282F7F
:101B000030E084FF05C044E0220F331F4A95E1F71F
:101B1000C22BD32BD0693ACF8D2F8F710E94510EDB
:101B2000182FCE0199270E94AF0DC12FD0E0DC2FD6
:101B3000CC27CC27DF71C82BD92B77CF462F7A3013
:101B400030F4663020F4672F0E94A701089590E0DA
:101B500080E008950E949E0D0E94A00C0895823896
:101B60009105B9F1B0F48133910509F47DC048F4D1
:101B70008932910509F46DC08A32910509F47BC060
:101B800008958533910509F45FC08933910509F102
:101B90000895833E9105D9F138F4803E910529F1ED
:101BA000823E910579F10895863E9105D9F1873EEF
:101BB000910509F43EC0843E910541F5209138021B
:101BC00021FF24C08091370284FD19C087EE90E088
:101BD000089520913702237009F05AC020913802ED
:101BE00023FF14C089E290E008952091370220FD80
:101BF00038C03091380230FF09C024FF43C090E064
:101C000080E008952091370222FDF7CF08952091BA
:101C1000370222FD3AC03091380230FD39C024FF2E
:101C2000F5CFEDCF2091370223FFF0CF24FDE7CF92
:101C3000CDCF2091370223FD2EC03091380231FFE5
:101C4000EECF84EE90E008952091370225FFDECF9D
:101C5000C9CF2091370225FD21C02091380223FFF2
:101C6000D5CF89E390E0D2CF2091370226FFCECFA7
:101C70008AE290E008952091370226FFC7CF81E3E2
:101C800090E0089583EE90E0089582EE90E008954C
:101C900080EE90E0089586EE90E0089585E390E070
:101CA00008959091370292FF10C041E0282F2471CF
:101CB000243009F040E031E0282F2871283009F065
:101CC00030E0431711F02CE0822793FF10C041E071
:101CD000282F2471243109F040E031E0282F2871A9
:101CE000283109F030E0431711F02CE082273091C1
:101CF000380230FF10C051E0282F2171213009F047
:101D000050E041E0282F2871283009F040E05417B6
:101D100011F029E0822731FF10C041E0282F217106
:101D2000213109F040E031E0282F2871283109F0F5
:101D300030E0431711F029E0822794FD877E089553
:101D40001092390210923A0210923B0210923C0219
:101D50000895CF92DF92EF92FF926B017C010E9477
:101D6000971081110EC00E94C117C61AD70AE80A3F
:101D7000F90AC0923902D0923A02E0923B02F09204
:101D80003C02FF90EF90DF90CF9008950F931F9348
:101D90000E949710882329F00E94C1171F910F916C
:101DA00008950E94C1170091390210913A022091C2
:101DB0003B0230913C02600F711F821F931FEECFD8
:101DC00080E0089508950E94E20E089508950E940B
:101DD000E60E0895E82FF0E0E85BFD4F808108955E
:101DE000089580EA8A95F1F7089500C008950E9449
:101DF000F10E089508950E94FA0E0895A5E0B0E04E
:101E0000E4E0FFE00C94E8210E949710F82E609126
:101E10005202882309F440C085E0E82E8E010F5F4E
:101E20001F4FF8018E2D11928A95E9F7862F90E0C9
:101E3000B801885B9D4F0E94BD108823B9F0809146
:101E40003D0290E045E050E0B801885B9D4F0E9464
:101E5000132221E02093D901892B91F4F12C0E94C7
:101E6000E70E8F2D2596E6E00C9404228091D9018F
:101E70008823A1F3F8011192EA94E9F71092D901AD
:101E8000A0913D02B0E0A85BBD4F85E0F801019054
:101E90000D928A95E1F7E3CF70E0685B7D4F80910A
:101EA0003D0290E0885B9D4F0E9444110E94FB0E12
:101EB000D8CFF894E82FE295EF70F0E031A1282F09
:101EC0002F7081E090E001C0880F2A95EAF7982FE3
:101ED0009095932391A392A1892B82A3789408953E
:101EE0000F931F93CF93DF93C3E3D1E089918F3F8B
:101EF00011F00E94590F81E0C833D807B9F7CDE23D
:101F0000D1E003E311E089918F3F11F00E94590F56
:101F10000C171D07C1F7DF91CF911F910F91089505
:101F2000B0E0A0E0E6E9FFE00C94E621EC01D62E5B
:101F3000062F10E0C8018D5C9E4F7C01FC01808162
:101F40008F3F09F444C0F894E82FE295EF70F0E079
:101F500091A18F7021E030E001C0220F8A95EAF74D
:101F6000892F822B81A382A12095282322A37894F4
:101F70000E94F50EEDE2F1E031E0C12C21912F3FFE
:101F800059F1A22FA295AF70B0E090968C9190E09D
:101F90002F7002C0959587952A95E2F780FD1CC0A9
:101FA000832FC82A330F81E0E333F80739F7F701AD
:101FB00080818F3F11F00E94590F61E0C11001C074
:101FC00060E08D2D0E94F70EC00FD11FC882CDB7E3
:101FD000DEB7E8E00C94022280E0E3CF80910201BA
:101FE0008091020195E0811190E09093520285E08A
:101FF000891B80933D020E94700F8AE0E8E4F2E0C2
:10200000DF01982F1D929A95E9F7EEE3F2E0DF01E8
:102010001D928A95E9F785E00E944F100E94E30E19
:102020000895AAE0B0E0E7E1F0E10C94E9218E0127
:102030000F5F1F4F8AE0F80111928A95E9F7F12CA2
:102040006F2DC8010E94900FF394F5E0FF12F8CFB6
:102050004AE050E0B8018EE392E00E94132221E0B2
:10206000009709F420E0892B41F08AE0F801AEE303
:10207000B2E001900D928A95E1F76091520270E012
:10208000685B7D4F45E08EE392E00E945010182F70
:102090000E94FE0E812B2A96E5E00C9405220895FD
:1020A000B0E0A0E0E6E5F0E10C94E6216C017B01F4
:1020B000042FC22F222379F081E08093DC010E945B
:1020C000B5179093DB018093DA0180E0CDB7DEB7DE
:1020D000E8E00C940222D091DC01DD23B1F3809181
:1020E000DA019091DB010E94CD17059770F310E0A3
:1020F000A801B601C7010E941322892B31F0A80163
:10210000B601C7010E942022CD2F1092DC018C2F36
:10211000DDCFCF930E94B521C82F811102C00E944C
:10212000B0218C2FCF9108958091E0010895809186
:10213000DF0108950E94971008950E9489108093EE
:10214000DF010E949A108093E0010E949410809316
:1021500002010E94971081110E94F31008950E94BD
:102160009710811102C00E94F610089581E09091AD
:10217000E1019A3008F080E008950F931F93CF9308
:10218000DF93EC018B018091E1018A30B8F4B80152
:10219000CE010E944111C82F811122C08091E1011E
:1021A0008F3FB9F40E94B5179093DE018093DD0153
:1021B0008C2FDF91CF911F910F9108958091DD01B8
:1021C0009091DE010E94CD17843F914000F7C0E05E
:1021D000EFCF8F5F8093E1018A3020F7C1E0E8CF35
:1021E0001092E101E5CF0E94EC1908950E94EF19C9
:1021F0000895B0E0A0E0EFEFF0E10C94E721790161
:10220000C82F880FDD0B41155105A9F0FE0193E0A1
:10221000EE0FFF1F9A95E1F7ED5FFE4F81819281EE
:102220008E519E4F208130E04217530708F49A01E7
:10223000A9010E942022CE010E94D81AD82E8823FC
:10224000D1F001151105B9F083E0CC0FDD1F8A959F
:10225000E1F7FE01ED5FFE4F438150E004171507E3
:1022600008F4A801CD5FDE4F6C817D816E517E4FF9
:10227000C7010E9420228D2DCDB7DEB7E7E00C9478
:1022800003220E94331208950E944A120895A4E086
:10229000B0E0EDE4F1E10C94EA216091F901709174
:1022A000FA018091FB019091FC010E94DC1711E082
:1022B000643671058105910518F10E94C60E6E5FA6
:1022C0007F4F8F4F9F4F69837A838B839C8310E06E
:1022D00000E030E020E044E050E0BE016F5F7F4F5F
:1022E00082E00E94F910182F882351F00E94C11734
:1022F0006093F9017093FA018093FB019093FC01C4
:10230000812F2496E4E00C940622B0E0A0E0EBE8F4
:10231000F1E10C94E4217C015B016A010E94B6109A
:1023200001E010E0882311F00AE010E0C1E0D0E005
:10233000B501C701F6010995811104C021960C175A
:102340001D072CF4CDB7DEB7EAE00C940022CC9F39
:102350009001CD9F300D300D112490E080E045E3D9
:102360004A95F1F70000019682179307C1F7E0CF75
:10237000A6E0B0E0EEEBF1E10C94E4217B01C0902B
:102380003801D090390101E010E09E012A5F3F4FF3
:1023900050E040E070E060E080E00E94F910182F0B
:1023A000882309F448C056018FEFA81AB80A609133
:1023B000F5017091F6018091F7019091F8010E946A
:1023C000DC17643671058105910568F105E010E0C0
:1023D0009E012F5F3F4F50E040E070E060E081E001
:1023E0000E94F910D82E65E070E0C5010E94BC146F
:1023F00011E09E81981310E01D2141F10E94C11748
:102400006093F5017093F6018093F7019093F801C2
:1024100085E0FE013196A0EFB1E001900D928A9522
:10242000E1F711E013C065E070E0C5010E94BC1443
:102430009E818913CBCF85E0F6013196DE0111969E
:1024400001900D928A95E1F71111E2CF85E0E0EF5E
:10245000F1E0D70101900D928A95E1F7812F269640
:10246000EAE00C9400220F931F93CF93DF93EC01CB
:102470008B0148EB51E10E948511882331F047E43C
:1024800051E1B801CE010E948511DF91CF911F91DA
:102490000F9108950F931F93CF93DF93C09138014D
:1024A000D0913901CE01019625E0FB01DC010190BC
:1024B0000D922A95E1F765E070E00E94BC148883D4
:1024C0006E817F81888599850091EC011091ED01E5
:1024D0002091EE013091EF01601771078207930799
:1024E00051F06093EC017093ED018093EE019093B5
:1024F000EF010E94A90EDF91CF911F910F910895D6
:102500000E942F0C08950E944E170E947E1C0E946C
:10251000EA0B0E94981C0E94190C0E94A51C0E94A4
:10252000AA1C0E9480120E94C41C0E94F80BF7CFC4
:1025300090934301809342010895AB0124E630E07B
:10254000BC0188E70E94BE1821E0892B09F020E039
:10255000822F0895AB0124E630E0BC0188E70E9499
:10256000021921E0892B09F020E0822F08950F93B2
:102570001F939B0104E610E0AC0160E488E70E9431
:10258000481921E0892B09F020E0822F1F910F913B
:1025900008950E948A18089508950E94CC12089503
:1025A000E3E5F2E080E092E0DF019C011D92215022
:1025B0003040E1F7F0935A04E09359048FEF9FEF16
:1025C00090932302809322020895CF930E94CC120D
:1025D0000E94CD1280931E0280FD11C080E880937E
:1025E0001D020E94C9126BE070E08FE292E00E942F
:1025F000AA12811106C0C0E08C2FCF91089580E20D
:10260000EECF80911E0265E070E081FD27C08AE276
:1026100092E00E94AA12882371F36DE070E088E1D5
:1026200092E00E94AA12C82F882329F30E94C117A2
:10263000605A75418F4F9F4F6093550470935604B5
:1026400080935704909358040E94D01281E08093A5
:1026500021028093200210921F02CECF85E292E0E9
:10266000D8CF20911D0236E0839FC0011124629FC4
:10267000800D911D1124811522E0920714F090E045
:1026800080E08D5A9D4F90935A0480935904089589
:1026900080912102811103C08091200208950E943F
:1026A000C117605A75418F4F9F4F609355047093C7
:1026B000560480935704909358048091200281110E
:1026C000EBCF62E070E086E192E00E94AA128823DC
:1026D00019F381E080932002DFCFA6E0B0E0E3E7CA
:1026E000F3E10C94DC21182F8091220290912302B7
:1026F000892B09F1809121028823E9F080911F0242
:10270000811119C00E9448131C821B822224239429
:10271000312C03E062E4E62E61E0F62E77E0672ECE
:102720008091220290912302009729F0BC81BB2363
:1027300049F0111107C02696E2E10C94F8212B8193
:102740002F5F2B833B81C32ED12C210102C0440C6F
:10275000551C3A95E2F7920128233923232B79F36C
:1027600080911E0280FD3EC08B818295880F80760D
:1027700080931D01960136952795369527952093D0
:102780002001815E80931E012093210167E070E0AB
:102790008BE191E00E949D12882369F2C60135E029
:1027A000880F991F3A95E1F720911E0220FD28C05D
:1027B00060E270E08D5A9D4F0E94B712882309F4A1
:1027C000BACFC2018095909540902202509023028A
:1027D0004822592250922302409222024C814F5F9C
:1027E0004C839ECF8B81880F880F880F80931D01AB
:1027F00010922001895F80931E0100932101C6CFB2
:10280000ADEFB1E0E0E21D92EA95E9F72EE331E0A9
:102810003E832D832AE3C22E21E0D22EAD81BE81DC
:102820006D91BE83AD83F60121916F01280F392F81
:10283000311DA9014D5A5D4F5A834983E62FF0E0BF
:10284000E350FE4F30E020E0762C721A922C022EDC
:1028500001C0990C0A94EAF769817A81A12CDB0105
:10286000BD90BD01B920472D4A194770842E042E12
:10287000000C550BBB2D01C0BB0F8A94EAF78B2EC1
:102880005195419551094770552701C0B6944A9515
:10289000EAF78B28B0808B288082A39448E0A412AA
:1028A000DECF2F5F3F4F31962830310569F6AD817D
:1028B000BE81EA16FB0609F0B1CF60E270E08DEF51
:1028C00091E07ACF8091200290912102911103C072
:1028D00091E089270895882369F062E070E084E13F
:1028E00092E00E94AA12811103C0809120020895F3
:1028F0001092200280912002EBCF81E008950E9487
:102900007D1408950F931F9380912102882381F1F4
:1029100080915304909154040E94CD17C29760F0A7
:102920000E94B517909354048093530460E080E0B4
:102930000E9431130E947F1480E00E946D138091E9
:1029400020028823A9F00E94C1170091550410911C
:1029500056042091570430915804601B710B820B70
:10296000930B6F3F7F4F8F4F9F4710F40E9462146D
:102970001F910F9108950895FC01680F791F8FEF43
:1029800091E3E617F70709F408952191822728E0DB
:1029900030E087FF06C0880F892721503109C9F729
:1029A000F0CF880FFACFCF93DF93EB0186319C47AE
:1029B00011F50E940B0A9D81992399F08A7A91E082
:1029C00009F490E090932402811109C089E20E94E9
:1029D000F5160E949A0A80E0DF91CF91089585E371
:1029E000F6CF80912402811104C089E20E94FD1675
:1029F000F0CF85E3FBCF81E0EFCFCF93DF93EC0106
:102A0000FB018581882309F4D2C09E01305723320F
:102A1000310508F0B2C00E94190B909338028093E0
:102A20003702FE01E150F047E232F10520F4E757AA
:102A3000FD4D0C94D621809137028160809337023E
:102A400093C0809138028860809338028DC0809155
:102A500037028260F3CF809137028460EFCF80919C
:102A600037028860EBCF809138028160EDCF809192
:102A700038028260E9CF809137028061DFCF809198
:102A800037028062DBCF809137028064D7CF0E940B
:102A90008F05809137028068D1CF809137028C609A
:102AA000CDCF809138028360CFCF809137028E7F67
:102AB000C5CF80913802877FC7CF809137028D7F45
:102AC000BDCF809137028B7FB9CF80913702877F4E
:102AD000B5CF809138028E7FB7CF809138028D7F3D
:102AE000B3CF809137028F7EA9CF809137028F7D3F
:102AF000A5CF809137028F7BA1CF0E948F05809157
:102B000037028F779BCF80913702837F97CF809159
:102B100038028C7F99CF8091370282FB992790F9F8
:102B200021E0922790FB82F990FB83F987CF809177
:102B30003802982F909591708E7F892B90FB81F9A8
:102B400083CF90913702892F8F7B96FF806476CF59
:102B50000E948F0590913702892F97FB87F9805843
:102B60006DCF81E00E94A20B8091370290913802D4
:102B70000E941E0B0E948F0580E0DF91CF91089587
:102B800080E0F0CF90913702892F8F7E94FF806193
:102B900055CF90913702892F8E7F90FF81604ECF65
:102BA00090913802892F877F93FF88604DCF81E015
:102BB000E4CF0F931F93CF93DF93C42FD22FFC0149
:102BC00085818823C9F0409327020E94B51790930E
:102BD00026028093250280E28C0F883040F4C77073
:102BE00081E001C0880FCA95EAF70E946903DF916E
:102BF000CF911F910F91089510912702141332C0A5
:102C000080912502909126020E94CD17883C910563
:102C100048F5C0E2CD0F1D17B9F080E2810F883072
:102C200040F4177081E001C0880F1A95EAF70E94FE
:102C30007003C83048F481E09D2F977001C0880F61
:102C40009A95EAF70E946903802F0E946003C830BA
:102C500070F6D77081E001C0880FDA95EAF70E941C
:102C60007003C5CF80E28C0F883008F6C77081E012
:102C700001C0880FCA95EAF7F2CF0F93DB018851A4
:102C80009C4787309105A0F5FC01E555FD4D0C945E
:102C9000D62106E221EE41EE6AE17CE7CD010E94F9
:102CA000D91580E00F91089507E225EE45EE6BE11E
:102CB0007CE7F4CF06E221EE40EE68E17CE7EECF60
:102CC00007E225EE44EE69E17CE7E8CF06E221EE7B
:102CD00042EE6CE17CE7E2CF07E225EE46EE6DE1E5
:102CE0007CE7DCCF08E221E045EE6EE17CE7D6CF61
:102CF00015968C91882319F010922702D3CF81E08A
:102D0000D1CF90932A028093290208950E949710B0
:102D1000811103C0809128020895E0912902F09169
:102D20002A02309729F00190F081E02D099508954D
:102D300080E00895E0912902F0912A02309721F075
:102D40000280F381E02D0995089540910001509192
:102D500001019A012E5F3F4F485F5F4F80E02417CB
:102D6000350709F40895F90191919F019923B9F369
:102D70008F5FF5CF882371F0209100013091010120
:102D8000F9013296285F3F4F9191981729F0E21789
:102D9000F307D1F780E0089581E008959C01FC01DC
:102DA00032969FEF80E04191461751F09F3F19F412
:102DB000411101C0982F8F5F8630A9F79F3F09F41A
:102DC0000895290F311D97FD3A95F9016283089501
:102DD000FC01329608962191261303C0DF0111975A
:102DE0001C92E817F907B9F70895682F8091000140
:102DF000909101010E94CE160895682F80910001E4
:102E0000909101010E94E8160895E0910001F0916F
:102E10000101329686E0DF011D928A95E9F7089557
:102E200008950E9410170895811106C081E08093D3
:102E30002B020E941117089582E0F9CF83E080935E
:102E40002B020E94111708950E941417089581E023
:102E500080932B020E94111708950E94271708954E
:102E6000089508950E9431170895089508950E94C5
:102E700030170895CF930E9435170E9411100E94B9
:102E80003617C0E08C2F0E94EA0E811105C0CF5F7B
:102E9000CA30C1F7CF91089581E0FCCF85B7806833
:102EA00085BF85B7806885BF08951F921FB61F92A2
:102EB00011248F939F93AF93BF9380912C02811124
:102EC00013C080915B0490915C04A0915D04B0916B
:102ED0005E044196A11DB11D80935B0490935C0438
:102EE000A0935D04B0935E04BF91AF919F918F91C9
:102EF0001F901FBE1F90189580916304843031F19C
:102F00000E94850210922C0288E190E020E40FB626
:102F1000F894A895809360000FBE2093600083B75B
:102F2000817F846083BF83B7816083BF78948895F5
:102F300083B78E7F83BF0FB6F894A8958091600009
:102F4000886180936000109260000FBE08950E9417
:102F50008F050E948C02089582E084BD93E095BDA8
:102F60009AEF97BD80936E0008952FB7F8948091E3
:102F70005B0490915C04A0915D04B0915E042FBF4E
:102F800008952FB7F89460915B0470915C04809170
:102F90005D0490915E042FBF08959C014FB7F89493
:102FA00080915B0490915C04A0915D04B0915E04FB
:102FB0004FBF821B930B0895CF92DF92EF92FF9247
:102FC0002FB7F894C0905B04D0905C04E0905D044F
:102FD000F0905E042FBFA7019601261B370B480B0C
:102FE000590BCA01B901FF90EF90DF90CF9008957F
:102FF00078941F921FB61F9211248F939F93AF93C3
:10300000BF9380915B0490915C04A0915D04B091AA
:103010005E040196A11DB11D80935B0490935C0436
:10302000A0935D04B0935E04BF91AF919F918F9187
:103030001F901FBE1F90189587E797E79093010890
:103040008093000888E19AE00FB6F894A8958093E1
:1030500060000FBE90936000FFCF88E19AE00FB64A
:10306000F894A895809360000FBE90936000FFCF06
:10307000EF92FF920F931F93CF93DF93182FEB01E3
:103080001092BC0084EA8093BC000E94B5177C01BA
:103090008091BC0087FF27C08091B900887F88306D
:1030A00029F08091B900887F803189F51093BB00A9
:1030B00084E88093BC000E94B5178C018091BC000D
:1030C00087FF1EC02091B900287F90E080E0283162
:1030D00091F081E090E0203411F490E080E091954F
:1030E0008195910908C0C7010E94CD17C817D9075B
:1030F00078F68EEF9FEFCDB7DEB7E6E00C940422B2
:10310000C8010E94CD17C817D907C0F6F2CF8FEFBC
:103110009FEFF1CF1092B9008CE08093B800089532
:103120000F931F93CF93DF93EB018093BB0084E851
:103130008093BC000E94B5178C018091BC0087FF72
:1031400011C02091B900287F81E090E0283211F46D
:1031500090E080E0919581959109DF91CF911F9149
:103160000F910895CF3FDC0741F3C8010E94CD17AE
:10317000C817D90710F78EEF9FEFEFCFB0E0A0E0B0
:10318000E4ECF8E10C94E121782E5B016A018901FD
:103190000E94B5174C01C1E0D0E00431110558F090
:1031A000C5E0D0E00F3F100731F0C80164E170E0E6
:1031B0000E94C221EB01BE01872D0E9438187C01BC
:1031C00097FF09C00F3F1007B1F3C4010E94CD174C
:1031D0000817190780F7E501CA0CDB1CCC15DD05C3
:1031E00011F0F7FE09C084E98093BC00C701CDB798
:1031F000DEB7EDE00C94FD21B80189910E94901892
:103200007C01ECCFB0E0A0E0E8E0F9E10C94E12132
:10321000782E5B016A0189010E94B5174C01C1E05B
:10322000D0E00431110558F0C5E0D0E00F3F1007A1
:1032300031F0C80164E170E00E94C221EB01BE01DF
:10324000872D0E9438187C0197FF09C00F3F100797
:10325000B1F3C4010E94CD170817190780F7E501E3
:10326000CA0CDB1CCC15DD0511F0F7FE09C084E9A2
:103270008093BC00C701CDB7DEB7EDE00C94FD2113
:10328000FE018491B8010E9490187C012196EACF3A
:10329000B0E0A0E0EEE4F9E10C94E021682E762E97
:1032A0005A0169010E94B5174C01C1E0D0E0043118
:1032B000110558F0C5E0D0E00F3F100731F0C8010C
:1032C00064E170E00E94C221EB01BE01862D0E94E4
:1032D00038187C0197FF1DC00F3F1007B1F3C401E0
:1032E0000E94CD170817190780F784E98093BC0066
:1032F000C701CDB7DEB7EEE00C94FC21B80189918F
:103300000E9490187C01CC16DD0679F3F7FEF6CF0B
:10331000ECCFB801872D0E9490187C01E501CA0C02
:10332000DB1CF1CF8EE14A9B02C08150E1F74A9B42
:10333000FECF08955A9880E28A95F1F75A9A089537
:10334000FC013BE03A95F1F798E020E080E031E0C5
:1033500040E14A95F1F7880F4A9B02C0816023271C
:1033600042E04A95F1F7000040E14A95F1F79150AB
:1033700079F790E19A95F1F799B132E03A95F1F742
:10338000000040E14A95F1F792FB992790F99227C6
:103390002081920F90830895A1E0B0E0E2EDF9E181
:1033A0000C94E82119828C017C01E60EF11C0E15AB
:1033B0001F0541F481E09981911180E02196E6E0BA
:1033C0000C9404220E949219CE0101960E94A01929
:1033D000F80181938F01EBCF529A5A9A089552982F
:1033E0005A9AEA9AE9E6F0E080818F7C808308951A
:1033F0006150770B91E001C0990F6A95EAF720E0E0
:1034000031E0911108C0222391F05A9A80E28A9506
:10341000F1F75A980895492F482339F05A9A2327EB
:1034200040E24A95F1F79695ECCF5A98F9CF5A9821
:10343000EDCFFF920F931F93CF93DF93EC018C019D
:10344000060F111DC017D10729F4CDB7DEB7E5E08F
:103450000C940522F9900E949A1968E08F2D0E9421
:10346000F819F0CF1F920F920FB60F9211240F93FD
:103470001F932F933F934F935F936F937F938F93FC
:103480009F93AF93BF93EF93FF93CF93DF930F92ED
:10349000CDB7DEB719820E949219CE0101960E9423
:1034A000A019082F069506950695282F22952570B8
:1034B000902F9570290F922F937026952695920F35
:1034C000982797708981982B09F05CC0043008F028
:1034D00059C080E18A95F1F75A9A529A82E08A950A
:1034E000F1F700C05A9888E0089F80011124D801A4
:1034F000AD5FBE4F1696ED91FC9117973097A9F0EE
:10350000609138017091390114962D913C91159775
:10351000260F371F11968D919C911297680F791F76
:1035200013964C9113978C910995F801ED5FFE4F1E
:103530006381662351F020913801309139018481F3
:103540009581820F931F0E94191A0E949A1980E197
:103550008A95F1F75A9852985A9A80E18A95F1F72C
:10356000F801ED5FFE4F6081662351F02091380134
:103570003091390181819281820F931F0E94CC1971
:103580000E9492190F90DF91CF91FF91EF91BF911F
:10359000AF919F918F917F916F915F914F913F91EB
:1035A0002F911F910F910F900FBE0F901F901895A4
:1035B0000F931F93CF93DF93EC0104970CF04CC053
:1035C000F894529A5A9885E08A95F1F700009C2F5A
:1035D000969595708C2F8570980F892F837096958E
:1035E000969523E0CC0FDD1F2A95E1F7980F8E0109
:1035F000092B0E949A1900C068E0802F0E94F819D8
:1036000080E18A95F1F752985A9A4A9B1EC087E04A
:1036100090E04A991CC0FE01ED5FFE4F6381662376
:10362000F9F0209138013091390184819581820F20
:10363000931F0E94CC19811113C0529A5A9A789400
:10364000DF91CF911F910F91089500C0DECF0197B8
:1036500029F4529A5A9A789480E0F2CF00C0D9CFD8
:103660000E94921980E28A95F1F75A98529A80E165
:103670008A95F1F7CD5FDE4F6881662351F0209186
:1036800038013091390189819A81820F931F0E94FC
:10369000191A0E949A19789481E0D2CF809135024C
:1036A00008950895089508959B01BA0190916304C7
:1036B0009430E9F48F708093E9009FEF8091E800E7
:1036C000915085FD06C085ED8A95F1F700009111B6
:1036D000F5CF8091E80085FF0AC050E040E0C901C5
:1036E0000E94291D8091E8008E778093E80008955C
:1036F000CF93DF93EC0148E050E0BC0181E00E94F1
:10370000541B88E0FE01ADE2B2E001900D928A9573
:10371000E1F7DF91CF91089580916204811109C092
:103720000E94B91E0E94161F8091E200846080935F
:10373000E20008951092620408950E9427170895E8
:1037400060915F0481E0611101C080E00E941E175A
:1037500008959091630481E0943009F080E06091D5
:103760005F040E942417089542E061EC81E00E940A
:10377000351E9091630481E0943009F080E06091FF
:103780005F040E941417089580916504833009F442
:1037900061C030F48130D1F1823009F49EC00895C7
:1037A0008A3009F48AC08B3009F46FC0893009F07F
:1037B00050C080916404813209F04BC0809168044C
:1037C00090916904892B09F044C08091E800877FBB
:1037D0008093E8008091E80082FF37C09091F30069
:1037E0008091F200029731F48091F100813011F064
:1037F000863021F48091F100809335028091E800B9
:103800008B778093E8000E94691E23C08091640436
:10381000813AF9F48091E800877F8093E8008091F5
:10382000680490916904892B61F468E08DE292E06C
:1038300070E00E94781D8091E8008B778093E8000B
:10384000089560E090E080E0F3CF809163048111FF
:10385000C1CF089580916404813AD9F780916804BA
:1038600090916904892BA9F78091E800877F809364
:10387000E8008091E80080FFFCCF80912C018093CC
:10388000F1008091E8008E77BCCF80916404813292
:1038900001F78091680490916904892BD1F6809199
:1038A000E800877F8093E8000E94691E809166048B
:1038B00080932C010E948F050895809164048132C9
:1038C00041F68091E800877F8093E8000E94691E9E
:1038D0008091670480933602089580916404813A50
:1038E00009F0B7CF8091E800877F8093E80080914E
:1038F000E80080FFFCCF80913602C1CF84B7877F7C
:1039000084BF0FB6F894A895809160008861809379
:103910006000109260000FBE80E890E00FB6F8944F
:1039200080936100909361000FBE0E942D1708954F
:103930000E94B91E0E94161FE2EEF0E080818460B2
:10394000808378940E949521089582E291E00E94FC
:103950008116089580916304853031F48091630469
:10396000853019F00E94A71708950E947C17809156
:103970006104882399F30E943A17882379F30E94FF
:10398000131D0E948F05EACF08959A0140916A04A1
:1039900050916B040E94CD1C0895492F5527433048
:1039A0005105C9F058F44130510599F142305105A3
:1039B000A9F190E080E050E040E01DC041325105A7
:1039C00009F142325105A9F784E490E044E952E05C
:1039D000672B79F710C099278130910581F0009706
:1039E00029F0029731F7EAE3F2E002C0ECE5F2E0F9
:1039F000849190E0AF01F901518340830895EAE496
:103A0000F2E0F6CF89E090E042E752E0672B89F6DA
:103A1000F2CF82E190E042E852E0EDCF82E290E026
:103A200040E652E0E8CF80E189BD82E189BD09B47A
:103A300000FEFDCF8091D8008F7D8093D8008091CB
:103A4000E00082608093E0008091E00081FDFCCF87
:103A50000895AF92BF92CF92DF92FF920F931F9380
:103A6000CF93DF936C01EB018A010E94881EF82E30
:103A7000811123C00115110539F0F8018081918170
:103A8000C81BD90BC80ED91EB12CA12C2097A9F0A8
:103A90008091E80085FD22C08091E8008E778093B8
:103AA000E80001151105A1F0F80180819181A80EAF
:103AB000B91EB182A08285E0F82E8F2DDF91CF91C3
:103AC0001F910F91FF90DF90CF90BF90AF9008951E
:103AD0000E94881E8823D1F2F82EEFCFF601819143
:103AE0006F018093F1002197FFEFAF1ABF0ACECF8D
:103AF000FC0180916A0490916B0486179707A0F0EF
:103B00006115710529F49091E8009E779093E80083
:103B100090E06115710551F4911108C08091E800A1
:103B200082FF34C080E00895BC01F2CF809163042D
:103B30008823C1F18530C1F18091E80083FD30C058
:103B40008091E80082FDEACF8091E80080FFE1CF1C
:103B50008091F3002091F200382F6115710519F062
:103B60002830310558F091E02830310509F090E017
:103B70002091E8002E772093E800CBCF81918093AD
:103B8000F100615071092F5F3F4FE7CF80916304CF
:103B9000882341F0853041F08091E80083FFBECF5B
:103BA00081E0089582E0089583E00895FC0180910A
:103BB0006A0490916B0486179707A0F06115710550
:103BC00029F48091E8008E778093E80090E06115F9
:103BD000710551F4911108C08091E80082FF35C051
:103BE00080E00895BC01F2CF809163048823C9F17D
:103BF0008530C9F18091E80083FD31C08091E800F3
:103C000082FDEACF8091E80080FFE1CF8091F30050
:103C10002091F200382F6115710519F02830310517
:103C200058F091E02830310509F090E08091E800EB
:103C30008E778093E800CBCF84918093F10031960A
:103C4000615071092F5F3F4FE6CF80916304882355
:103C500041F0853041F08091E80083FFBDCF81E0E5
:103C6000089582E0089583E00895982F973028F012
:103C70008F708093E90081E008959093E900242FEC
:103C8000762F50E0981731F07091EC002091ED0004
:103C90005091F00021FD02C09F5FE8CF3091EB0012
:103CA0003E7F3093EB003091ED003D7F3093ED008F
:103CB0003091EB0031603093EB007093EC00209377
:103CC000ED005093F0002091EE0027FDE5CF80E05D
:103CD00008958091640487FF13C08091E80082FFFB
:103CE00006C08091E8008B778093E80004C0809143
:103CF00063048111F2CF0895809163048823D9F37E
:103D00008091E80080FFF8CF8091E8008E77ECCFBB
:103D10002091E4003091E50095E6A9012091EC00A6
:103D2000822F817020FF06C08091E80080FF06C0CE
:103D300080E008952091E80022FD1AC0809163047C
:103D4000882389F0853089F08091EB0085FD0FC0D4
:103D50002091E4003091E50042175307F9F29150A9
:103D6000E1F684E0089582E0089583E0089581E01B
:103D700008950E94281F0E94301FE0EEF0E080812D
:103D800081608083E8EDF0E080818F77808319BCCB
:103D9000A7EDB0E08C918E7F8C9380818F7E8083A5
:103DA0001092620408950F931F93CF93DF930E94A4
:103DB000281F0E94301FC8EDD0E088818F7788834C
:103DC00088818068888388818F7D888319BC109260
:103DD000630410925F04109261041092600400EE7C
:103DE00010E0F80180818B7F8083888181608883E7
:103DF00042E060E080E00E94351EE1EEF0E080816C
:103E00008E7F8083E2EEF0E080818160808380811C
:103E100088608083F80180818E7F808388818061C3
:103E20008883DF91CF911F910F910895E8EDF0E025
:103E300080818F7E8083E7EDF0E0808181608083E8
:103E400084E082BF81E0809362040E94D31E0895C3
:103E5000E8EDF0E080818E7F80831092E20008958B
:103E60001092DA001092E10008951F920F920FB69F
:103E70000F9211242F933F934F935F936F937F93F0
:103E80008F939F93AF93BF93EF93FF938091E10044
:103E900082FF0BC08091E20082FF07C08091E100A9
:103EA0008B7F8093E1000E9494218091DA0080FF53
:103EB00019C08091D80080FF15C08091DA008E7FF4
:103EC0008093DA008091D90080FF96C080E189BD9F
:103ED00082E189BD09B400FEFDCF81E080936304D7
:103EE0000E948C1B8091E10080FF19C08091E2004C
:103EF00080FF15C08091E2008E7F8093E200809168
:103F0000E20080618093E2008091D800806280931B
:103F1000D80019BC85E0809363040E94A01B8091A7
:103F2000E10084FF2BC08091E20084FF27C080E184
:103F300089BD82E189BD89B5982F917080FFFBCF43
:103F40008091D8008F7D8093D8008091E1008F7E92
:103F50008093E1008091E2008F7E8093E200809167
:103F6000E20081608093E20080915F04882309F47D
:103F700049C084E0809363040E94A91B8091E10002
:103F800083FF29C08091E20083FF25C08091E1007A
:103F9000877F8093E10082E08093630410925F0446
:103FA0008091E1008E7F8093E1008091E2008E7F1E
:103FB0008093E2008091E20080618093E20042E021
:103FC00060E080E00E94351E8091F0008860809360
:103FD000F0000E949D1BFF91EF91BF91AF919F91C7
:103FE0008F917F916F915F914F913F912F910F90A2
:103FF0000FBE0F901F90189519BC109263040E9479
:104000009A1B70CF8091E30087FD93E09093630447
:10401000B3CF1F920F920FB60F9211242F933F939D
:104020004F935F936F937F938F939F93AF93BF93C0
:10403000CF93DF93EF93FF93D091E900DF708091EE
:10404000EC00C82FC17080FDC0E81092E90080919B
:10405000F000877F8093F00078940E944D201092AA
:10406000E9008091F00088608093F000CD2BCF7044
:10407000C093E900FF91EF91DF91CF91BF91AF9194
:104080009F918F917F916F915F914F913F912F9170
:104090000F900FBE0F901F901895AAE2B0E0E3E5D5
:1040A000F0E20C94EB2184E694E02091F100FC0115
:1040B0002193CF01F4E08C369F07B9F70E94C41B0F
:1040C0008091E80083FF1EC1809164049091650493
:1040D0009A3008F017C1E92FF0E0EE54FD4D0C9432
:1040E000D621803899F0823809F00CC1809168049B
:1040F0008F70873008F006C18093E9008091EB0053
:1041000085FB882780F91092E90006C08091600441
:1041100090916104911182609091E800977F909353
:10412000E8008093F1001092F1008091E8008E7712
:10413000E5C0882309F4D3C0823009F0E3C0809140
:1041400066048111D6C0809168048F702FEF280F0C
:10415000263008F0D7C08093E9002091EB0020FFC3
:10416000C8C0933031F48091EB0080628093EB0003
:10417000C0C09091EB0090619093EB0021E030E0A3
:1041800001C0220F8A95EAF72093EA001092EA0014
:104190008091EB008860EACF8111B4C01091660471
:1041A0001F778091E3008078812B8093E3008091DA
:1041B000E800877F8093E8000E94691E8091E800F4
:1041C00080FFFCCF8091E30080688093E30082E071
:1041D000111183E08093630495C08058823008F009
:1041E00091C080916604909167048C3D23E0920712
:1041F000A1F583E08A838AE289834FB7F894DE01D0
:10420000139620E03EE051E2E32FF0E05093570098
:10421000E49120FF03C0E295EF703F5FEF708E2FB7
:1042200090E0EA30C0F0C7968D939D932F5F2431C4
:1042300059F74FBF8091E800877F8093E8006AE2DA
:1042400070E0CE0101960E94781D8091E8008B7786
:104250008093E80057C0C096E7CF609168047091E2
:104260006904AE014F5F5F4F0E94C51CBC01892BE2
:1042700009F448C09091E800977F9093E800898105
:104280009A810E94D61DE1CF8038E1F58091E80047
:10429000877F8093E80080915F048093F10045CF91
:1042A000811130C090916604923060F58091E800F1
:1042B000877F8093E80090935F040E94691E80913D
:1042C0005F04882311F084E005C08091E30087FD3E
:1042D000FACF81E0809363040E94B41B13C08091E5
:1042E0006604813079F481E0933009F080E08093B6
:1042F00061041092E9008091E800877F8093E800D4
:104300000E94691E8091E80083FF0AC08091E80046
:10431000877F8093E8008091EB0080628093EB00C0
:10432000AA96E3E00C9407220895CF93809163044A
:104330008823A1F0C091E900CF709091EC00892F03
:10434000817090FD80E8C82B1092E9008091E80010
:1043500083FD0E944D20CF70C093E900CF91089556
:104360000E94B91E109263040895E8EDF0E0808188
:10437000806180838AE18A95F1F700C08091D9003D
:1043800081700895AA1BBB1B51E107C0AA1FBB1F68
:10439000A617B70710F0A61BB70B881F991F5A95D1
:1043A000A9F780959095BC01CD010895EE0FFF1FF0
:1043B0000590F491E02D09942F923F924F925F92D5
:1043C0006F927F928F929F92AF92BF92CF92DF9225
:1043D000EF92FF920F931F93CF93DF93CDB7DEB78A
:1043E000CA1BDB0B0FB6F894DEBF0FBECDBF09941E
:1043F0002A88398848885F846E847D848C849B8475
:10440000AA84B984C884DF80EE80FD800C811B8182
:10441000AA81B981CE0FD11D0FB6F894DEBF0FBEB1
:10442000CDBFED010895FB01DC0104C08D91019029
:10443000801921F441505040C8F7881B990B08950A
:10444000FB01DC0102C001900D9241505040D8F7B1
:104450000895F999FECF92BD81BDF89A992780B54C
:104460000895A8E1B0E042E050E00C946D22DC0138
:10447000A40FB51F4150504048F0CB01840F951F49
:104480002E910E94482241505040D0F70895262F87
:10449000F999FECF92BD81BDF89A019700B402163A
:1044A00039F01FBA20BD0FB6F894FA9AF99A0FBEE8
:1044B00008950396272F0E9448220E944722252F05
:1044C0000E944822242F0C9448220196272F0E94F4
:1044D00048220C944722DC01CB01FC01F999FECF64
:1044E00006C0F2BDE1BDF89A319600B40D9241507C
:1044F0005040B8F70895F894FFCFB803B803080404
:104500000804E703E703E703E7036D04DE04ED04B3
:10451000ED045515C9155D1527152B1561152F15BA
:10452000651571153B15C2153F15751543157915A0
:10453000A11547157D15A8154D1583158B15331538
:10454000691537156D15511587159715B115C015D6
:1045500021155915D0155A166016491654166616A7
:104560006C16721671209920822199208221CC200C
:08457000ED20822144215021BD
:10457800BA01010000000100000000000000050170
:1045880000000004060000000000000021007F2257
:1045980000034E1B781B521B531B511B01F6F731AE
:1045A8003332366697C63435E20100081018181001
:0245B8000800F9
:00000001FF
